{
  "_format": "hh3-artifact-1",
  "contractName": "VehicleMarketplaceEscrow",
  "sourceName": "contracts/VehicleMarketplaceEscrow.sol",
  "abi": [
    {
      "anonymous": false,
      "inputs": [
        {
          "indexed": true,
          "internalType": "uint256",
          "name": "orderId",
          "type": "uint256"
        },
        {
          "indexed": true,
          "internalType": "address",
          "name": "buyer",
          "type": "address"
        },
        {
          "indexed": false,
          "internalType": "uint256",
          "name": "amount",
          "type": "uint256"
        }
      ],
      "name": "DepositPaid",
      "type": "event"
    },
    {
      "anonymous": false,
      "inputs": [
        {
          "indexed": true,
          "internalType": "uint256",
          "name": "orderId",
          "type": "uint256"
        },
        {
          "indexed": true,
          "internalType": "address",
          "name": "buyer",
          "type": "address"
        },
        {
          "indexed": false,
          "internalType": "uint256",
          "name": "amount",
          "type": "uint256"
        }
      ],
      "name": "FullPaid",
      "type": "event"
    },
    {
      "anonymous": false,
      "inputs": [
        {
          "indexed": true,
          "internalType": "uint256",
          "name": "orderId",
          "type": "uint256"
        },
        {
          "indexed": true,
          "internalType": "address",
          "name": "caller",
          "type": "address"
        },
        {
          "indexed": false,
          "internalType": "uint256",
          "name": "refundedAmount",
          "type": "uint256"
        }
      ],
      "name": "OrderCancelled",
      "type": "event"
    },
    {
      "anonymous": false,
      "inputs": [
        {
          "indexed": true,
          "internalType": "uint256",
          "name": "orderId",
          "type": "uint256"
        },
        {
          "indexed": true,
          "internalType": "address",
          "name": "buyer",
          "type": "address"
        },
        {
          "indexed": false,
          "internalType": "uint256",
          "name": "releasedAmount",
          "type": "uint256"
        }
      ],
      "name": "OrderCompleted",
      "type": "event"
    },
    {
      "anonymous": false,
      "inputs": [
        {
          "indexed": true,
          "internalType": "uint256",
          "name": "orderId",
          "type": "uint256"
        },
        {
          "indexed": true,
          "internalType": "address",
          "name": "buyer",
          "type": "address"
        },
        {
          "indexed": true,
          "internalType": "address",
          "name": "seller",
          "type": "address"
        },
        {
          "indexed": false,
          "internalType": "uint256",
          "name": "totalAmount",
          "type": "uint256"
        },
        {
          "indexed": false,
          "internalType": "uint256",
          "name": "depositAmount",
          "type": "uint256"
        },
        {
          "indexed": false,
          "internalType": "enum VehicleMarketplaceEscrow.PaymentType",
          "name": "paymentType",
          "type": "uint8"
        }
      ],
      "name": "OrderCreated",
      "type": "event"
    },
    {
      "anonymous": false,
      "inputs": [
        {
          "indexed": true,
          "internalType": "uint256",
          "name": "orderId",
          "type": "uint256"
        },
        {
          "indexed": true,
          "internalType": "address",
          "name": "seller",
          "type": "address"
        }
      ],
      "name": "SellerConfirmed",
      "type": "event"
    },
    {
      "inputs": [
        {
          "internalType": "uint256",
          "name": "orderId",
          "type": "uint256"
        }
      ],
      "name": "cancelOrder",
      "outputs": [],
      "stateMutability": "nonpayable",
      "type": "function"
    },
    {
      "inputs": [
        {
          "internalType": "uint256",
          "name": "orderId",
          "type": "uint256"
        }
      ],
      "name": "completeOrder",
      "outputs": [],
      "stateMutability": "nonpayable",
      "type": "function"
    },
    {
      "inputs": [
        {
          "internalType": "uint256",
          "name": "orderId",
          "type": "uint256"
        }
      ],
      "name": "confirmOrder",
      "outputs": [],
      "stateMutability": "nonpayable",
      "type": "function"
    },
    {
      "inputs": [
        {
          "internalType": "uint256",
          "name": "orderId",
          "type": "uint256"
        },
        {
          "internalType": "address",
          "name": "buyer",
          "type": "address"
        },
        {
          "internalType": "address",
          "name": "seller",
          "type": "address"
        },
        {
          "internalType": "uint256",
          "name": "totalAmount",
          "type": "uint256"
        },
        {
          "internalType": "uint256",
          "name": "depositAmount",
          "type": "uint256"
        },
        {
          "internalType": "enum VehicleMarketplaceEscrow.PaymentType",
          "name": "paymentType",
          "type": "uint8"
        }
      ],
      "name": "createOrder",
      "outputs": [],
      "stateMutability": "nonpayable",
      "type": "function"
    },
    {
      "inputs": [
        {
          "internalType": "uint256",
          "name": "orderId",
          "type": "uint256"
        }
      ],
      "name": "getOrder",
      "outputs": [
        {
          "internalType": "uint256",
          "name": "",
          "type": "uint256"
        },
        {
          "internalType": "address",
          "name": "",
          "type": "address"
        },
        {
          "internalType": "address",
          "name": "",
          "type": "address"
        },
        {
          "internalType": "uint256",
          "name": "",
          "type": "uint256"
        },
        {
          "internalType": "uint256",
          "name": "",
          "type": "uint256"
        },
        {
          "internalType": "uint256",
          "name": "",
          "type": "uint256"
        },
        {
          "internalType": "enum VehicleMarketplaceEscrow.PaymentType",
          "name": "",
          "type": "uint8"
        },
        {
          "internalType": "enum VehicleMarketplaceEscrow.OrderStatus",
          "name": "",
          "type": "uint8"
        },
        {
          "internalType": "uint256",
          "name": "",
          "type": "uint256"
        }
      ],
      "stateMutability": "view",
      "type": "function"
    },
    {
      "inputs": [
        {
          "internalType": "uint256",
          "name": "",
          "type": "uint256"
        }
      ],
      "name": "orders",
      "outputs": [
        {
          "internalType": "uint256",
          "name": "orderId",
          "type": "uint256"
        },
        {
          "internalType": "address",
          "name": "buyer",
          "type": "address"
        },
        {
          "internalType": "address",
          "name": "seller",
          "type": "address"
        },
        {
          "internalType": "uint256",
          "name": "totalAmount",
          "type": "uint256"
        },
        {
          "internalType": "uint256",
          "name": "depositAmount",
          "type": "uint256"
        },
        {
          "internalType": "uint256",
          "name": "paidAmount",
          "type": "uint256"
        },
        {
          "internalType": "enum VehicleMarketplaceEscrow.PaymentType",
          "name": "paymentType",
          "type": "uint8"
        },
        {
          "internalType": "enum VehicleMarketplaceEscrow.OrderStatus",
          "name": "status",
          "type": "uint8"
        },
        {
          "internalType": "uint256",
          "name": "createdAt",
          "type": "uint256"
        }
      ],
      "stateMutability": "view",
      "type": "function"
    },
    {
      "inputs": [
        {
          "internalType": "uint256",
          "name": "orderId",
          "type": "uint256"
        }
      ],
      "name": "payDeposit",
      "outputs": [],
      "stateMutability": "payable",
      "type": "function"
    },
    {
      "inputs": [
        {
          "internalType": "uint256",
          "name": "orderId",
          "type": "uint256"
        }
      ],
      "name": "payFull",
      "outputs": [],
      "stateMutability": "payable",
      "type": "function"
    }
  ],
  "bytecode": "0x6080604052348015600e575f5ffd5b506123048061001c5f395ff3fe60806040526004361061007a575f3560e01c806390b07b2d1161004d57806390b07b2d14610112578063a85c38ef1461012e578063b6adaaff14610172578063d09ef2411461019a5761007a565b806328cd3f181461007e5780635104df181461009a578063514fcac7146100c25780638ac7d79c146100ea575b5f5ffd5b61009860048036038101906100939190611755565b6101de565b005b3480156100a5575f5ffd5b506100c060048036038101906100bb91906117fd565b6104a7565b005b3480156100cd575f5ffd5b506100e860048036038101906100e39190611755565b6109f0565b005b3480156100f5575f5ffd5b50610110600480360381019061010b9190611755565b610d3d565b005b61012c60048036038101906101279190611755565b610f75565b005b348015610139575f5ffd5b50610154600480360381019061014f9190611755565b61123d565b6040516101699998979695949392919061195d565b60405180910390f35b34801561017d575f5ffd5b5061019860048036038101906101939190611755565b6112dd565b005b3480156101a5575f5ffd5b506101c060048036038101906101bb9190611755565b611559565b6040516101d59998979695949392919061195d565b60405180910390f35b805f5f5f8381526020019081526020015f205f015403610233576040517f08c379a000000000000000000000000000000000000000000000000000000000815260040161022a90611a42565b60405180910390fd5b815f5f8281526020019081526020015f206001015f9054906101000a900473ffffffffffffffffffffffffffffffffffffffff1673ffffffffffffffffffffffffffffffffffffffff163373ffffffffffffffffffffffffffffffffffffffff16146102d4576040517f08c379a00000000000000000000000000000000000000000000000000000000081526004016102cb90611aaa565b60405180910390fd5b5f5f5f8581526020019081526020015f209050600160028111156102fb576102fa6118a4565b5b816006015f9054906101000a900460ff16600281111561031e5761031d6118a4565b5b1461035e576040517f08c379a000000000000000000000000000000000000000000000000000000000815260040161035590611b12565b60405180910390fd5b60016006811115610372576103716118a4565b5b8160060160019054906101000a900460ff166006811115610396576103956118a4565b5b146103d6576040517f08c379a00000000000000000000000000000000000000000000000000000000081526004016103cd90611b7a565b60405180910390fd5b8060040154341461041c576040517f08c379a000000000000000000000000000000000000000000000000000000000815260040161041390611be2565b60405180910390fd5b34816005018190555060028160060160016101000a81548160ff0219169083600681111561044d5761044c6118a4565b5b02179055503373ffffffffffffffffffffffffffffffffffffffff16847f0ab25ea2b2e5b35643aad63eb6201c5da140c2c8152b126272a85b2b9efd6122346040516104999190611c00565b60405180910390a350505050565b5f86036104e9576040517f08c379a00000000000000000000000000000000000000000000000000000000081526004016104e090611c63565b60405180910390fd5b5f73ffffffffffffffffffffffffffffffffffffffff168573ffffffffffffffffffffffffffffffffffffffff1603610557576040517f08c379a000000000000000000000000000000000000000000000000000000000815260040161054e90611ccb565b60405180910390fd5b5f73ffffffffffffffffffffffffffffffffffffffff168473ffffffffffffffffffffffffffffffffffffffff16036105c5576040517f08c379a00000000000000000000000000000000000000000000000000000000081526004016105bc90611d33565b60405180910390fd5b5f8311610607576040517f08c379a00000000000000000000000000000000000000000000000000000000081526004016105fe90611d9b565b60405180910390fd5b5f5f5f8881526020019081526020015f205f01541461065b576040517f08c379a000000000000000000000000000000000000000000000000000000000815260040161065290611e03565b60405180910390fd5b6001600281111561066f5761066e6118a4565b5b816002811115610682576106816118a4565b5b03610710575f82116106c9576040517f08c379a00000000000000000000000000000000000000000000000000000000081526004016106c090611e6b565b60405180910390fd5b82821061070b576040517f08c379a000000000000000000000000000000000000000000000000000000000815260040161070290611ed3565b60405180910390fd5b6107be565b600280811115610723576107226118a4565b5b816002811115610736576107356118a4565b5b03610782575f821461077d576040517f08c379a000000000000000000000000000000000000000000000000000000000815260040161077490611f3b565b60405180910390fd5b6107bd565b6040517f08c379a00000000000000000000000000000000000000000000000000000000081526004016107b490611fa3565b60405180910390fd5b5b6040518061012001604052808781526020018673ffffffffffffffffffffffffffffffffffffffff1681526020018573ffffffffffffffffffffffffffffffffffffffff1681526020018481526020018381526020015f815260200182600281111561082d5761082c6118a4565b5b815260200160016006811115610846576108456118a4565b5b8152602001428152505f5f8881526020019081526020015f205f820151815f01556020820151816001015f6101000a81548173ffffffffffffffffffffffffffffffffffffffff021916908373ffffffffffffffffffffffffffffffffffffffff1602179055506040820151816002015f6101000a81548173ffffffffffffffffffffffffffffffffffffffff021916908373ffffffffffffffffffffffffffffffffffffffff160217905550606082015181600301556080820151816004015560a0820151816005015560c0820151816006015f6101000a81548160ff0219169083600281111561093b5761093a6118a4565b5b021790555060e08201518160060160016101000a81548160ff0219169083600681111561096b5761096a6118a4565b5b021790555061010082015181600701559050508373ffffffffffffffffffffffffffffffffffffffff168573ffffffffffffffffffffffffffffffffffffffff16877fa215c1a3005c1fb2a333d28b8ade52573f1c2055c1671e34aaf8d81a4116b9b48686866040516109e093929190611fc1565b60405180910390a4505050505050565b805f5f5f8381526020019081526020015f205f015403610a45576040517f08c379a0000000000000000000000000000000000000000000000000000000008152600401610a3c90611a42565b60405180910390fd5b5f5f5f8481526020019081526020015f209050806001015f9054906101000a900473ffffffffffffffffffffffffffffffffffffffff1673ffffffffffffffffffffffffffffffffffffffff163373ffffffffffffffffffffffffffffffffffffffff161480610b035750806002015f9054906101000a900473ffffffffffffffffffffffffffffffffffffffff1673ffffffffffffffffffffffffffffffffffffffff163373ffffffffffffffffffffffffffffffffffffffff16145b610b42576040517f08c379a0000000000000000000000000000000000000000000000000000000008152600401610b3990612040565b60405180910390fd5b60016006811115610b5657610b556118a4565b5b8160060160019054906101000a900460ff166006811115610b7a57610b796118a4565b5b1480610bbb575060026006811115610b9557610b946118a4565b5b8160060160019054906101000a900460ff166006811115610bb957610bb86118a4565b5b145b80610bfb575060036006811115610bd557610bd46118a4565b5b8160060160019054906101000a900460ff166006811115610bf957610bf86118a4565b5b145b610c3a576040517f08c379a0000000000000000000000000000000000000000000000000000000008152600401610c31906120a8565b60405180910390fd5b5f816005015490505f826005018190555060068260060160016101000a81548160ff02191690836006811115610c7357610c726118a4565b5b02179055505f811115610ce857816001015f9054906101000a900473ffffffffffffffffffffffffffffffffffffffff1673ffffffffffffffffffffffffffffffffffffffff166108fc8290811502906040515f60405180830381858888f19350505050158015610ce6573d5f5f3e3d5ffd5b505b3373ffffffffffffffffffffffffffffffffffffffff16847fc4058ebc534b64ecb27b2d4eaa1904f98997ec18ebe6ada4117593dde89478cc83604051610d2f9190611c00565b60405180910390a350505050565b805f5f5f8381526020019081526020015f205f015403610d92576040517f08c379a0000000000000000000000000000000000000000000000000000000008152600401610d8990611a42565b60405180910390fd5b815f5f8281526020019081526020015f206002015f9054906101000a900473ffffffffffffffffffffffffffffffffffffffff1673ffffffffffffffffffffffffffffffffffffffff163373ffffffffffffffffffffffffffffffffffffffff1614610e33576040517f08c379a0000000000000000000000000000000000000000000000000000000008152600401610e2a90612110565b60405180910390fd5b5f5f5f8581526020019081526020015f20905060026006811115610e5a57610e596118a4565b5b8160060160019054906101000a900460ff166006811115610e7e57610e7d6118a4565b5b1480610ebf575060036006811115610e9957610e986118a4565b5b8160060160019054906101000a900460ff166006811115610ebd57610ebc6118a4565b5b145b610efe576040517f08c379a0000000000000000000000000000000000000000000000000000000008152600401610ef590612178565b60405180910390fd5b60048160060160016101000a81548160ff02191690836006811115610f2657610f256118a4565b5b02179055503373ffffffffffffffffffffffffffffffffffffffff16847f3912f5e66f51daa2463de82e3cb302d1bae85d4bb3a336cd314f36977120bb0f60405160405180910390a350505050565b805f5f5f8381526020019081526020015f205f015403610fca576040517f08c379a0000000000000000000000000000000000000000000000000000000008152600401610fc190611a42565b60405180910390fd5b815f5f8281526020019081526020015f206001015f9054906101000a900473ffffffffffffffffffffffffffffffffffffffff1673ffffffffffffffffffffffffffffffffffffffff163373ffffffffffffffffffffffffffffffffffffffff161461106b576040517f08c379a000000000000000000000000000000000000000000000000000000000815260040161106290611aaa565b60405180910390fd5b5f5f5f8581526020019081526020015f209050600280811115611091576110906118a4565b5b816006015f9054906101000a900460ff1660028111156110b4576110b36118a4565b5b146110f4576040517f08c379a00000000000000000000000000000000000000000000000000000000081526004016110eb906121e0565b60405180910390fd5b60016006811115611108576111076118a4565b5b8160060160019054906101000a900460ff16600681111561112c5761112b6118a4565b5b1461116c576040517f08c379a000000000000000000000000000000000000000000000000000000000815260040161116390611b7a565b60405180910390fd5b806003015434146111b2576040517f08c379a00000000000000000000000000000000000000000000000000000000081526004016111a990612248565b60405180910390fd5b34816005018190555060038160060160016101000a81548160ff021916908360068111156111e3576111e26118a4565b5b02179055503373ffffffffffffffffffffffffffffffffffffffff16847f39e9192e5ac9bcd94bf15111b7ee14c0efaea476a0b6d6d6ad7afc4262546d103460405161122f9190611c00565b60405180910390a350505050565b5f602052805f5260405f205f91509050805f015490806001015f9054906101000a900473ffffffffffffffffffffffffffffffffffffffff1690806002015f9054906101000a900473ffffffffffffffffffffffffffffffffffffffff1690806003015490806004015490806005015490806006015f9054906101000a900460ff16908060060160019054906101000a900460ff16908060070154905089565b805f5f5f8381526020019081526020015f205f015403611332576040517f08c379a000000000000000000000000000000000000000000000000000000000815260040161132990611a42565b60405180910390fd5b815f5f8281526020019081526020015f206001015f9054906101000a900473ffffffffffffffffffffffffffffffffffffffff1673ffffffffffffffffffffffffffffffffffffffff163373ffffffffffffffffffffffffffffffffffffffff16146113d3576040517f08c379a00000000000000000000000000000000000000000000000000000000081526004016113ca90611aaa565b60405180910390fd5b5f5f5f8581526020019081526020015f209050600460068111156113fa576113f96118a4565b5b8160060160019054906101000a900460ff16600681111561141e5761141d6118a4565b5b1461145e576040517f08c379a0000000000000000000000000000000000000000000000000000000008152600401611455906122b0565b60405180910390fd5b60058160060160016101000a81548160ff02191690836006811115611486576114856118a4565b5b02179055505f816005015490505f8260050181905550816002015f9054906101000a900473ffffffffffffffffffffffffffffffffffffffff1673ffffffffffffffffffffffffffffffffffffffff166108fc8290811502906040515f60405180830381858888f19350505050158015611502573d5f5f3e3d5ffd5b503373ffffffffffffffffffffffffffffffffffffffff16857fe542d9ced06ebf48c00dc3567a112897fa34963ecc9a6ebf2beba9bc70f568948360405161154a9190611c00565b60405180910390a35050505050565b5f5f5f5f5f5f5f5f5f5f5f5f8c81526020019081526020015f20604051806101200160405290815f8201548152602001600182015f9054906101000a900473ffffffffffffffffffffffffffffffffffffffff1673ffffffffffffffffffffffffffffffffffffffff1673ffffffffffffffffffffffffffffffffffffffff168152602001600282015f9054906101000a900473ffffffffffffffffffffffffffffffffffffffff1673ffffffffffffffffffffffffffffffffffffffff1673ffffffffffffffffffffffffffffffffffffffff168152602001600382015481526020016004820154815260200160058201548152602001600682015f9054906101000a900460ff166002811115611674576116736118a4565b5b6002811115611686576116856118a4565b5b81526020016006820160019054906101000a900460ff1660068111156116af576116ae6118a4565b5b60068111156116c1576116c06118a4565b5b81526020016007820154815250509050805f015181602001518260400151836060015184608001518560a001518660c001518760e00151886101000151995099509950995099509950995099509950509193959799909294969850565b5f5ffd5b5f819050919050565b61173481611722565b811461173e575f5ffd5b50565b5f8135905061174f8161172b565b92915050565b5f6020828403121561176a5761176961171e565b5b5f61177784828501611741565b91505092915050565b5f73ffffffffffffffffffffffffffffffffffffffff82169050919050565b5f6117a982611780565b9050919050565b6117b98161179f565b81146117c3575f5ffd5b50565b5f813590506117d4816117b0565b92915050565b600381106117e6575f5ffd5b50565b5f813590506117f7816117da565b92915050565b5f5f5f5f5f5f60c087890312156118175761181661171e565b5b5f61182489828a01611741565b965050602061183589828a016117c6565b955050604061184689828a016117c6565b945050606061185789828a01611741565b935050608061186889828a01611741565b92505060a061187989828a016117e9565b9150509295509295509295565b61188f81611722565b82525050565b61189e8161179f565b82525050565b7f4e487b71000000000000000000000000000000000000000000000000000000005f52602160045260245ffd5b600381106118e2576118e16118a4565b5b50565b5f8190506118f2826118d1565b919050565b5f611901826118e5565b9050919050565b611911816118f7565b82525050565b60078110611928576119276118a4565b5b50565b5f81905061193882611917565b919050565b5f6119478261192b565b9050919050565b6119578161193d565b82525050565b5f610120820190506119715f83018c611886565b61197e602083018b611895565b61198b604083018a611895565b6119986060830189611886565b6119a56080830188611886565b6119b260a0830187611886565b6119bf60c0830186611908565b6119cc60e083018561194e565b6119da610100830184611886565b9a9950505050505050505050565b5f82825260208201905092915050565b7f4f72646572206e6f7420666f756e6400000000000000000000000000000000005f82015250565b5f611a2c600f836119e8565b9150611a37826119f8565b602082019050919050565b5f6020820190508181035f830152611a5981611a20565b9050919050565b7f4e6f7420627579657200000000000000000000000000000000000000000000005f82015250565b5f611a946009836119e8565b9150611a9f82611a60565b602082019050919050565b5f6020820190508181035f830152611ac181611a88565b9050919050565b7f4e6f74206465706f736974206f726465720000000000000000000000000000005f82015250565b5f611afc6011836119e8565b9150611b0782611ac8565b602082019050919050565b5f6020820190508181035f830152611b2981611af0565b9050919050565b7f496e76616c6964207374617475730000000000000000000000000000000000005f82015250565b5f611b64600e836119e8565b9150611b6f82611b30565b602082019050919050565b5f6020820190508181035f830152611b9181611b58565b9050919050565b7f496e636f7272656374206465706f73697420616d6f756e7400000000000000005f82015250565b5f611bcc6018836119e8565b9150611bd782611b98565b602082019050919050565b5f6020820190508181035f830152611bf981611bc0565b9050919050565b5f602082019050611c135f830184611886565b92915050565b7f496e76616c6964206f72646572496400000000000000000000000000000000005f82015250565b5f611c4d600f836119e8565b9150611c5882611c19565b602082019050919050565b5f6020820190508181035f830152611c7a81611c41565b9050919050565b7f496e76616c6964206275796572000000000000000000000000000000000000005f82015250565b5f611cb5600d836119e8565b9150611cc082611c81565b602082019050919050565b5f6020820190508181035f830152611ce281611ca9565b9050919050565b7f496e76616c69642073656c6c65720000000000000000000000000000000000005f82015250565b5f611d1d600e836119e8565b9150611d2882611ce9565b602082019050919050565b5f6020820190508181035f830152611d4a81611d11565b9050919050565b7f496e76616c696420746f74616c20616d6f756e740000000000000000000000005f82015250565b5f611d856014836119e8565b9150611d9082611d51565b602082019050919050565b5f6020820190508181035f830152611db281611d79565b9050919050565b7f4f7264657220616c7265616479206578697374730000000000000000000000005f82015250565b5f611ded6014836119e8565b9150611df882611db9565b602082019050919050565b5f6020820190508181035f830152611e1a81611de1565b9050919050565b7f496e76616c6964206465706f73697420616d6f756e74000000000000000000005f82015250565b5f611e556016836119e8565b9150611e6082611e21565b602082019050919050565b5f6020820190508181035f830152611e8281611e49565b9050919050565b7f4465706f736974206d757374206265206c657373207468616e20746f74616c005f82015250565b5f611ebd601f836119e8565b9150611ec882611e89565b602082019050919050565b5f6020820190508181035f830152611eea81611eb1565b9050919050565b7f46756c6c207061796d656e74206465706f736974206d757374206265203000005f82015250565b5f611f25601e836119e8565b9150611f3082611ef1565b602082019050919050565b5f6020820190508181035f830152611f5281611f19565b9050919050565b7f496e76616c6964207061796d656e7420747970650000000000000000000000005f82015250565b5f611f8d6014836119e8565b9150611f9882611f59565b602082019050919050565b5f6020820190508181035f830152611fba81611f81565b9050919050565b5f606082019050611fd45f830186611886565b611fe16020830185611886565b611fee6040830184611908565b949350505050565b7f4e6f7420617574686f72697a65640000000000000000000000000000000000005f82015250565b5f61202a600e836119e8565b915061203582611ff6565b602082019050919050565b5f6020820190508181035f8301526120578161201e565b9050919050565b7f43616e6e6f742063616e63656c206e6f770000000000000000000000000000005f82015250565b5f6120926011836119e8565b915061209d8261205e565b602082019050919050565b5f6020820190508181035f8301526120bf81612086565b9050919050565b7f4e6f742073656c6c6572000000000000000000000000000000000000000000005f82015250565b5f6120fa600a836119e8565b9150612105826120c6565b602082019050919050565b5f6020820190508181035f830152612127816120ee565b9050919050565b7f4f72646572206e6f7420706169640000000000000000000000000000000000005f82015250565b5f612162600e836119e8565b915061216d8261212e565b602082019050919050565b5f6020820190508181035f83015261218f81612156565b9050919050565b7f4e6f742066756c6c207061796d656e74206f72646572000000000000000000005f82015250565b5f6121ca6016836119e8565b91506121d582612196565b602082019050919050565b5f6020820190508181035f8301526121f7816121be565b9050919050565b7f496e636f72726563742066756c6c20616d6f756e7400000000000000000000005f82015250565b5f6122326015836119e8565b915061223d826121fe565b602082019050919050565b5f6020820190508181035f83015261225f81612226565b9050919050565b7f4f72646572206e6f7420636f6e6669726d6564000000000000000000000000005f82015250565b5f61229a6013836119e8565b91506122a582612266565b602082019050919050565b5f6020820190508181035f8301526122c78161228e565b905091905056fea26469706673582212203ff63fbbdc0dfe7e47bb882427e8be66edba41bcac7c7410f6351769566c2ecb64736f6c634300081c0033",
  "linkReferences": {},
  "deployedLinkReferences": {},
  "immutableReferences": {},
  "inputSourceName": "project/contracts/VehicleMarketplaceEscrow.sol",
  "buildInfoId": "solc-0_8_28-3b954a127fbaf7bdcc53e6657360195008bf9027"
}